{
  "contractName": "EventFactory",
  "abi": [
    {
      "constant": true,
      "inputs": [
        {
          "name": "",
          "type": "uint256"
        }
      ],
      "name": "deployedEvents",
      "outputs": [
        {
          "name": "",
          "type": "address"
        }
      ],
      "payable": false,
      "stateMutability": "view",
      "type": "function"
    },
    {
      "constant": false,
      "inputs": [
        {
          "name": "_name",
          "type": "string"
        },
        {
          "name": "_start",
          "type": "uint256"
        },
        {
          "name": "_end",
          "type": "uint256"
        },
        {
          "name": "supply",
          "type": "uint256"
        },
        {
          "name": "_ticketPrice",
          "type": "uint256"
        }
      ],
      "name": "createEvent",
      "outputs": [],
      "payable": false,
      "stateMutability": "nonpayable",
      "type": "function"
    },
    {
      "constant": true,
      "inputs": [],
      "name": "getDeployedEvents",
      "outputs": [
        {
          "name": "",
          "type": "address[]"
        }
      ],
      "payable": false,
      "stateMutability": "view",
      "type": "function"
    }
  ],
  "bytecode": "0x608060405234801561001057600080fd5b50611d28806100206000396000f3fe608060405234801561001057600080fd5b50600436106100415760003560e01c80633812783e14610046578063dbf3f3c9146100a5578063eade22f614610188575b600080fd5b61004e6101f6565b6040518080602001828103825283818151815260200191508051906020019060200280838360005b83811015610091578082015181840152602081019050610076565b505050509050019250505060405180910390f35b610186600480360360a08110156100bb57600080fd5b81019080803590602001906401000000008111156100d857600080fd5b8201836020820111156100ea57600080fd5b8035906020019184600183028401116401000000008311171561010c57600080fd5b91908080601f016020809104026020016040519081016040528093929190818152602001838380828437600081840152601f19601f82011690508083019250505050505050919291929080359060200190929190803590602001909291908035906020019092919080359060200190929190505050610284565b005b6101b46004803603602081101561019e57600080fd5b81019080803590602001909291905050506103e3565b604051808273ffffffffffffffffffffffffffffffffffffffff1673ffffffffffffffffffffffffffffffffffffffff16815260200191505060405180910390f35b6060600080548060200260200160405190810160405280929190818152602001828054801561027a57602002820191906000526020600020905b8160009054906101000a900473ffffffffffffffffffffffffffffffffffffffff1673ffffffffffffffffffffffffffffffffffffffff1681526020019060010190808311610230575b5050505050905090565b60003386868686866040516102989061041f565b808773ffffffffffffffffffffffffffffffffffffffff1673ffffffffffffffffffffffffffffffffffffffff16815260200180602001868152602001858152602001848152602001838152602001828103825287818151815260200191508051906020019080838360005b8381101561031f578082015181840152602081019050610304565b50505050905090810190601f16801561034c5780820380516001836020036101000a031916815260200191505b50975050505050505050604051809103906000f080158015610372573d6000803e3d6000fd5b50905060008190806001815401808255809150509060018203906000526020600020016000909192909190916101000a81548173ffffffffffffffffffffffffffffffffffffffff021916908373ffffffffffffffffffffffffffffffffffffffff16021790555050505050505050565b600081815481106103f057fe5b906000526020600020016000915054906101000a900473ffffffffffffffffffffffffffffffffffffffff1681565b6118d08061042d8339019056fe60806040523480156200001157600080fd5b50604051620018d0380380620018d0833981018060405260c08110156200003757600080fd5b810190808051906020019092919080516401000000008111156200005a57600080fd5b828101905060208101848111156200007157600080fd5b81518560018202830111640100000000821117156200008f57600080fd5b505092919060200180519060200190929190805190602001909291908051906020019092919080519060200190929190505050834210620000cf57600080fd5b828411620000dc57600080fd5b8460039080519060200190620000f4929190620003c3565b508360048190555082600581905550806008819055508160068190555085600960006101000a81548173ffffffffffffffffffffffffffffffffffffffff021916908373ffffffffffffffffffffffffffffffffffffffff1602179055506200016486836200017060201b60201c565b50505050505062000472565b600073ffffffffffffffffffffffffffffffffffffffff168273ffffffffffffffffffffffffffffffffffffffff16141562000214576040517f08c379a000000000000000000000000000000000000000000000000000000000815260040180806020018281038252601f8152602001807f45524332303a206d696e7420746f20746865207a65726f20616464726573730081525060200191505060405180910390fd5b62000230816002546200033a60201b620011431790919060201c565b6002819055506200028e816000808573ffffffffffffffffffffffffffffffffffffffff1673ffffffffffffffffffffffffffffffffffffffff168152602001908152602001600020546200033a60201b620011431790919060201c565b6000808473ffffffffffffffffffffffffffffffffffffffff1673ffffffffffffffffffffffffffffffffffffffff168152602001908152602001600020819055508173ffffffffffffffffffffffffffffffffffffffff16600073ffffffffffffffffffffffffffffffffffffffff167fddf252ad1be2c89b69c2b068fc378daa952ba7f163c4a11628f55a4df523b3ef836040518082815260200191505060405180910390a35050565b600080828401905083811015620003b9576040517f08c379a000000000000000000000000000000000000000000000000000000000815260040180806020018281038252601b8152602001807f536166654d6174683a206164646974696f6e206f766572666c6f77000000000081525060200191505060405180910390fd5b8091505092915050565b828054600181600116156101000203166002900490600052602060002090601f016020900481019282601f106200040657805160ff191683800117855562000437565b8280016001018555821562000437579182015b828111156200043657825182559160200191906001019062000419565b5b5090506200044691906200044a565b5090565b6200046f91905b808211156200046b57600081600090555060010162000451565b5090565b90565b61144e80620004826000396000f3fe6080604052600436106100e85760003560e01c806351958a561161008a578063a9059cbb11610059578063a9059cbb14610501578063b948348c14610574578063c24a0f8b146105a2578063dd62ed3e146105cd576100e8565b806351958a561461037757806370a08231146103d25780638da5cb5b14610437578063a457c2d71461048e576100e8565b806318160ddd116100c657806318160ddd1461021b57806323b872dd1461024657806339509351146102d957806348a0d7541461034c576100e8565b806306fdde03146100ed578063095ea7b31461017d5780630b97bc86146101f0575b600080fd5b3480156100f957600080fd5b50610102610652565b6040518080602001828103825283818151815260200191508051906020019080838360005b83811015610142578082015181840152602081019050610127565b50505050905090810190601f16801561016f5780820380516001836020036101000a031916815260200191505b509250505060405180910390f35b34801561018957600080fd5b506101d6600480360360408110156101a057600080fd5b81019080803573ffffffffffffffffffffffffffffffffffffffff169060200190929190803590602001909291905050506106f0565b604051808215151515815260200191505060405180910390f35b3480156101fc57600080fd5b5061020561070e565b6040518082815260200191505060405180910390f35b34801561022757600080fd5b50610230610714565b6040518082815260200191505060405180910390f35b34801561025257600080fd5b506102bf6004803603606081101561026957600080fd5b81019080803573ffffffffffffffffffffffffffffffffffffffff169060200190929190803573ffffffffffffffffffffffffffffffffffffffff1690602001909291908035906020019092919050505061071e565b604051808215151515815260200191505060405180910390f35b3480156102e557600080fd5b50610332600480360360408110156102fc57600080fd5b81019080803573ffffffffffffffffffffffffffffffffffffffff169060200190929190803590602001909291905050506107f7565b604051808215151515815260200191505060405180910390f35b34801561035857600080fd5b506103616108aa565b6040518082815260200191505060405180910390f35b34801561038357600080fd5b506103d06004803603604081101561039a57600080fd5b81019080803573ffffffffffffffffffffffffffffffffffffffff169060200190929190803590602001909291905050506108b0565b005b3480156103de57600080fd5b50610421600480360360208110156103f557600080fd5b81019080803573ffffffffffffffffffffffffffffffffffffffff169060200190929190505050610920565b6040518082815260200191505060405180910390f35b34801561044357600080fd5b5061044c610968565b604051808273ffffffffffffffffffffffffffffffffffffffff1673ffffffffffffffffffffffffffffffffffffffff16815260200191505060405180910390f35b34801561049a57600080fd5b506104e7600480360360408110156104b157600080fd5b81019080803573ffffffffffffffffffffffffffffffffffffffff1690602001909291908035906020019092919050505061098e565b604051808215151515815260200191505060405180910390f35b34801561050d57600080fd5b5061055a6004803603604081101561052457600080fd5b81019080803573ffffffffffffffffffffffffffffffffffffffff16906020019092919080359060200190929190505050610a5b565b604051808215151515815260200191505060405180910390f35b6105a06004803603602081101561058a57600080fd5b8101908080359060200190929190505050610a79565b005b3480156105ae57600080fd5b506105b7610b41565b6040518082815260200191505060405180910390f35b3480156105d957600080fd5b5061063c600480360360408110156105f057600080fd5b81019080803573ffffffffffffffffffffffffffffffffffffffff169060200190929190803573ffffffffffffffffffffffffffffffffffffffff169060200190929190505050610b47565b6040518082815260200191505060405180910390f35b60038054600181600116156101000203166002900480601f0160208091040260200160405190810160405280929190818152602001828054600181600116156101000203166002900480156106e85780601f106106bd576101008083540402835291602001916106e8565b820191906000526020600020905b8154815290600101906020018083116106cb57829003601f168201915b505050505081565b60006107046106fd610bce565b8484610bd6565b6001905092915050565b60045481565b6000600254905090565b600061072b848484610dcd565b6107ec84610737610bce565b6107e78560405180606001604052806028815260200161132860289139600160008b73ffffffffffffffffffffffffffffffffffffffff1673ffffffffffffffffffffffffffffffffffffffff168152602001908152602001600020600061079d610bce565b73ffffffffffffffffffffffffffffffffffffffff1673ffffffffffffffffffffffffffffffffffffffff168152602001908152602001600020546110839092919063ffffffff16565b610bd6565b600190509392505050565b60006108a0610804610bce565b8461089b8560016000610815610bce565b73ffffffffffffffffffffffffffffffffffffffff1673ffffffffffffffffffffffffffffffffffffffff16815260200190815260200160002060008973ffffffffffffffffffffffffffffffffffffffff1673ffffffffffffffffffffffffffffffffffffffff1681526020019081526020016000205461114390919063ffffffff16565b610bd6565b6001905092915050565b60065481565b806108ba33610920565b1015610911576040517f08c379a00000000000000000000000000000000000000000000000000000000081526004018080602001828103825260328152602001806113cc6032913960400191505060405180910390fd5b61091b8282610a5b565b505050565b60008060008373ffffffffffffffffffffffffffffffffffffffff1673ffffffffffffffffffffffffffffffffffffffff168152602001908152602001600020549050919050565b600960009054906101000a900473ffffffffffffffffffffffffffffffffffffffff1681565b6000610a5161099b610bce565b84610a4c856040518060600160405280602581526020016113fe60259139600160006109c5610bce565b73ffffffffffffffffffffffffffffffffffffffff1673ffffffffffffffffffffffffffffffffffffffff16815260200190815260200160002060008a73ffffffffffffffffffffffffffffffffffffffff1673ffffffffffffffffffffffffffffffffffffffff168152602001908152602001600020546110839092919063ffffffff16565b610bd6565b6001905092915050565b6000610a6f610a68610bce565b8484610dcd565b6001905092915050565b600654811115610ad4576040517f08c379a00000000000000000000000000000000000000000000000000000000081526004018080602001828103825260338152602001806113756033913960400191505060405180910390fd5b610ae9816008546111cb90919063ffffffff16565b341015610af557600080fd5b610b22600960009054906101000a900473ffffffffffffffffffffffffffffffffffffffff16338361071e565b50610b388160065461125190919063ffffffff16565b60068190555050565b60055481565b6000600160008473ffffffffffffffffffffffffffffffffffffffff1673ffffffffffffffffffffffffffffffffffffffff16815260200190815260200160002060008373ffffffffffffffffffffffffffffffffffffffff1673ffffffffffffffffffffffffffffffffffffffff16815260200190815260200160002054905092915050565b600033905090565b600073ffffffffffffffffffffffffffffffffffffffff168373ffffffffffffffffffffffffffffffffffffffff161415610c5c576040517f08c379a00000000000000000000000000000000000000000000000000000000081526004018080602001828103825260248152602001806113a86024913960400191505060405180910390fd5b600073ffffffffffffffffffffffffffffffffffffffff168273ffffffffffffffffffffffffffffffffffffffff161415610ce2576040517f08c379a00000000000000000000000000000000000000000000000000000000081526004018080602001828103825260228152602001806112bf6022913960400191505060405180910390fd5b80600160008573ffffffffffffffffffffffffffffffffffffffff1673ffffffffffffffffffffffffffffffffffffffff16815260200190815260200160002060008473ffffffffffffffffffffffffffffffffffffffff1673ffffffffffffffffffffffffffffffffffffffff168152602001908152602001600020819055508173ffffffffffffffffffffffffffffffffffffffff168373ffffffffffffffffffffffffffffffffffffffff167f8c5be1e5ebec7d5bd14f71427d1e84f3dd0314c0f7b2291e5b200ac8c7c3b925836040518082815260200191505060405180910390a3505050565b600073ffffffffffffffffffffffffffffffffffffffff168373ffffffffffffffffffffffffffffffffffffffff161415610e53576040517f08c379a00000000000000000000000000000000000000000000000000000000081526004018080602001828103825260258152602001806113506025913960400191505060405180910390fd5b600073ffffffffffffffffffffffffffffffffffffffff168273ffffffffffffffffffffffffffffffffffffffff161415610ed9576040517f08c379a000000000000000000000000000000000000000000000000000000000815260040180806020018281038252602381526020018061129c6023913960400191505060405180910390fd5b610f44816040518060600160405280602681526020016112e1602691396000808773ffffffffffffffffffffffffffffffffffffffff1673ffffffffffffffffffffffffffffffffffffffff168152602001908152602001600020546110839092919063ffffffff16565b6000808573ffffffffffffffffffffffffffffffffffffffff1673ffffffffffffffffffffffffffffffffffffffff16815260200190815260200160002081905550610fd7816000808573ffffffffffffffffffffffffffffffffffffffff1673ffffffffffffffffffffffffffffffffffffffff1681526020019081526020016000205461114390919063ffffffff16565b6000808473ffffffffffffffffffffffffffffffffffffffff1673ffffffffffffffffffffffffffffffffffffffff168152602001908152602001600020819055508173ffffffffffffffffffffffffffffffffffffffff168373ffffffffffffffffffffffffffffffffffffffff167fddf252ad1be2c89b69c2b068fc378daa952ba7f163c4a11628f55a4df523b3ef836040518082815260200191505060405180910390a3505050565b6000838311158290611130576040517f08c379a00000000000000000000000000000000000000000000000000000000081526004018080602001828103825283818151815260200191508051906020019080838360005b838110156110f55780820151818401526020810190506110da565b50505050905090810190601f1680156111225780820380516001836020036101000a031916815260200191505b509250505060405180910390fd5b5060008385039050809150509392505050565b6000808284019050838110156111c1576040517f08c379a000000000000000000000000000000000000000000000000000000000815260040180806020018281038252601b8152602001807f536166654d6174683a206164646974696f6e206f766572666c6f77000000000081525060200191505060405180910390fd5b8091505092915050565b6000808314156111de576000905061124b565b60008284029050828482816111ef57fe5b0414611246576040517f08c379a00000000000000000000000000000000000000000000000000000000081526004018080602001828103825260218152602001806113076021913960400191505060405180910390fd5b809150505b92915050565b600061129383836040518060400160405280601e81526020017f536166654d6174683a207375627472616374696f6e206f766572666c6f770000815250611083565b90509291505056fe45524332303a207472616e7366657220746f20746865207a65726f206164647265737345524332303a20617070726f766520746f20746865207a65726f206164647265737345524332303a207472616e7366657220616d6f756e7420657863656564732062616c616e6365536166654d6174683a206d756c7469706c69636174696f6e206f766572666c6f7745524332303a207472616e7366657220616d6f756e74206578636565647320616c6c6f77616e636545524332303a207472616e736665722066726f6d20746865207a65726f2061646472657373526571756972656420616d6f756e74206f66207469636b6574206973206e6f7420617661696c61626c6520666f722073616c6545524332303a20617070726f76652066726f6d20746865207a65726f2061646472657373796f7520646f6e742068617665207265717569726564207469636b6574207175616e7469747920746f207472616e7366657245524332303a2064656372656173656420616c6c6f77616e63652062656c6f77207a65726fa165627a7a723058207c627698b93375cf495eb5b9f001c71ad7f3a518933252ae4d6352650a1335d30029a165627a7a7230582098e31b3f853484eb4fb9eba2ad4e79a4f14f85acbf7c9a1692f942dbf83b11d50029",
  "source": "pragma solidity ^0.5.0;\n\nimport './Event.sol';\n\ncontract EventFactory {\n\n    Event[] public deployedEvents;\n\n    function createEvent(string memory _name, uint _start, uint _end,  uint supply, uint _ticketPrice) public {\n        Event newEvent = new Event(msg.sender, _name, _start, _end, supply, _ticketPrice);\n        deployedEvents.push(newEvent);\n\n    }\n\n   function getDeployedEvents() public view returns(Event[] memory) {\n        return deployedEvents;\n    }\n    \n}\n",
  "sourcePath": "/var/www/html/bionic_event_dapp/contracts/EventFactory.sol",
  "compiler": {
    "name": "solc",
    "version": "0.5.8+commit.23d335f2.Emscripten.clang"
  },
  "schemaVersion": "3.0.16",
  "updatedAt": "2019-10-19T09:26:41.065Z",
  "devdoc": {
    "methods": {}
  },
  "userdoc": {
    "methods": {}
  }
}