{
  "contractName": "EventFactory",
  "abi": [
    {
      "constant": true,
      "inputs": [
        {
          "name": "",
          "type": "uint256"
        }
      ],
      "name": "deployedEvents",
      "outputs": [
        {
          "name": "",
          "type": "address"
        }
      ],
      "payable": false,
      "stateMutability": "view",
      "type": "function"
    },
    {
      "anonymous": false,
      "inputs": [
        {
          "indexed": false,
          "name": "_address",
          "type": "address"
        },
        {
          "indexed": false,
          "name": "_name",
          "type": "string"
        },
        {
          "indexed": false,
          "name": "_ticketPrice",
          "type": "uint256"
        },
        {
          "indexed": false,
          "name": "location",
          "type": "string"
        },
        {
          "indexed": false,
          "name": "startDate",
          "type": "uint256"
        },
        {
          "indexed": false,
          "name": "endDate",
          "type": "uint256"
        },
        {
          "indexed": true,
          "name": "_filterName",
          "type": "string"
        },
        {
          "indexed": true,
          "name": "_filterLocation",
          "type": "string"
        }
      ],
      "name": "eventCreated",
      "type": "event"
    },
    {
      "constant": false,
      "inputs": [
        {
          "name": "_name",
          "type": "string"
        },
        {
          "name": "_start",
          "type": "uint256"
        },
        {
          "name": "_end",
          "type": "uint256"
        },
        {
          "name": "supply",
          "type": "uint256"
        },
        {
          "name": "_ticketPrice",
          "type": "uint256"
        },
        {
          "name": "_description",
          "type": "string"
        },
        {
          "name": "_location",
          "type": "string"
        }
      ],
      "name": "createEvent",
      "outputs": [],
      "payable": false,
      "stateMutability": "nonpayable",
      "type": "function"
    },
    {
      "constant": true,
      "inputs": [],
      "name": "getDeployedEvents",
      "outputs": [
        {
          "name": "",
          "type": "address[]"
        }
      ],
      "payable": false,
      "stateMutability": "view",
      "type": "function"
    }
  ],
  "bytecode": "0x608060405234801561001057600080fd5b506145f5806100206000396000f3fe608060405234801561001057600080fd5b50600436106100415760003560e01c80633812783e14610046578063eade22f6146100a5578063efb9a1b214610113575b600080fd5b61004e610324565b6040518080602001828103825283818151815260200191508051906020019060200280838360005b83811015610091578082015181840152602081019050610076565b505050509050019250505060405180910390f35b6100d1600480360360208110156100bb57600080fd5b81019080803590602001909291905050506103b2565b604051808273ffffffffffffffffffffffffffffffffffffffff1673ffffffffffffffffffffffffffffffffffffffff16815260200191505060405180910390f35b610322600480360360e081101561012957600080fd5b810190808035906020019064010000000081111561014657600080fd5b82018360208201111561015857600080fd5b8035906020019184600183028401116401000000008311171561017a57600080fd5b91908080601f016020809104026020016040519081016040528093929190818152602001838380828437600081840152601f19601f820116905080830192505050505050509192919290803590602001909291908035906020019092919080359060200190929190803590602001909291908035906020019064010000000081111561020557600080fd5b82018360208201111561021757600080fd5b8035906020019184600183028401116401000000008311171561023957600080fd5b91908080601f016020809104026020016040519081016040528093929190818152602001838380828437600081840152601f19601f8201169050808301925050505050505091929192908035906020019064010000000081111561029c57600080fd5b8201836020820111156102ae57600080fd5b803590602001918460018302840111640100000000831117156102d057600080fd5b91908080601f016020809104026020016040519081016040528093929190818152602001838380828437600081840152601f19601f8201169050808301925050505050505091929192905050506103ee565b005b606060008054806020026020016040519081016040528092919081815260200182805480156103a857602002820191906000526020600020905b8160009054906101000a900473ffffffffffffffffffffffffffffffffffffffff1673ffffffffffffffffffffffffffffffffffffffff168152602001906001019080831161035e575b5050505050905090565b600081815481106103bf57fe5b906000526020600020016000915054906101000a900473ffffffffffffffffffffffffffffffffffffffff1681565b600033905060008189898987878b8b60405161040990610846565b808973ffffffffffffffffffffffffffffffffffffffff1673ffffffffffffffffffffffffffffffffffffffff16815260200180602001888152602001878152602001806020018060200186815260200185815260200184810384528b818151815260200191508051906020019080838360005b8381101561049857808201518184015260208101905061047d565b50505050905090810190601f1680156104c55780820380516001836020036101000a031916815260200191505b50848103835288818151815260200191508051906020019080838360005b838110156104fe5780820151818401526020810190506104e3565b50505050905090810190601f16801561052b5780820380516001836020036101000a031916815260200191505b50848103825287818151815260200191508051906020019080838360005b83811015610564578082015181840152602081019050610549565b50505050905090810190601f1680156105915780820380516001836020036101000a031916815260200191505b509b505050505050505050505050604051809103906000f0801580156105bb573d6000803e3d6000fd5b50905060008190806001815401808255809150509060018203906000526020600020016000909192909190916101000a81548173ffffffffffffffffffffffffffffffffffffffff021916908373ffffffffffffffffffffffffffffffffffffffff16021790555050826040518082805190602001908083835b602083106106585780518252602082019150602081019050602083039250610635565b6001836020036101000a0380198251168184511680821785525050505050509050019150506040518091039020896040518082805190602001908083835b602083106106b95780518252602082019150602081019050602083039250610696565b6001836020036101000a03801982511681845116808217855250505050505090500191505060405180910390207f6ff0bb589eb87a40aa0cfd5832c5c22dc1c626b86daae2eaac21b03a77302942838c89888e8e604051808773ffffffffffffffffffffffffffffffffffffffff1673ffffffffffffffffffffffffffffffffffffffff1681526020018060200186815260200180602001858152602001848152602001838103835288818151815260200191508051906020019080838360005b8381101561079557808201518184015260208101905061077a565b50505050905090810190601f1680156107c25780820380516001836020036101000a031916815260200191505b50838103825286818151815260200191508051906020019080838360005b838110156107fb5780820151818401526020810190506107e0565b50505050905090810190601f1680156108285780820380516001836020036101000a031916815260200191505b509850505050505050505060405180910390a3505050505050505050565b613d7580620008558339019056fe60806040526005601260006101000a81548160ff021916908360ff1602179055503480156200002d57600080fd5b5060405162003d7538038062003d7583398101806040526101008110156200005457600080fd5b810190808051906020019092919080516401000000008111156200007757600080fd5b828101905060208101848111156200008e57600080fd5b8151856001820283011164010000000082111715620000ac57600080fd5b505092919060200180519060200190929190805190602001909291908051640100000000811115620000dd57600080fd5b82810190506020810184811115620000f457600080fd5b81518560018202830111640100000000821117156200011257600080fd5b505092919060200180516401000000008111156200012f57600080fd5b828101905060208101848111156200014657600080fd5b81518560018202830111640100000000821117156200016457600080fd5b50509291906020018051906020019092919080519060200190929190505050866040518060400160405280600381526020017f544b5400000000000000000000000000000000000000000000000000000000008152508181620001d46301ffc9a760e01b6200030860201b60201c565b620001ec6380ac58cd60e01b6200030860201b60201c565b6200020463780e9d6360e01b6200030860201b60201c565b81600990805190602001906200021c92919062000411565b5080600a90805190602001906200023592919062000411565b506200024e635b5e139f60e01b6200030860201b60201c565b5050505086600c90805190602001906200026a92919062000411565b5085600d8190555084600f81905550806016819055508160108190555083601390805190602001906200029f92919062000411565b5087601760006101000a81548173ffffffffffffffffffffffffffffffffffffffff021916908373ffffffffffffffffffffffffffffffffffffffff1602179055508260119080519060200190620002f992919062000411565b505050505050505050620004c0565b63ffffffff60e01b817bffffffffffffffffffffffffffffffffffffffffffffffffffffffff19161415620003a5576040517f08c379a000000000000000000000000000000000000000000000000000000000815260040180806020018281038252601c8152602001807f4552433136353a20696e76616c696420696e746572666163652069640000000081525060200191505060405180910390fd5b6001600080837bffffffffffffffffffffffffffffffffffffffffffffffffffffffff19167bffffffffffffffffffffffffffffffffffffffffffffffffffffffff1916815260200190815260200160002060006101000a81548160ff02191690831515021790555050565b828054600181600116156101000203166002900490600052602060002090601f016020900481019282601f106200045457805160ff191683800117855562000485565b8280016001018555821562000485579182015b828111156200048457825182559160200191906001019062000467565b5b50905062000494919062000498565b5090565b620004bd91905b80821115620004b95760008160009055506001016200049f565b5090565b90565b6138a580620004d06000396000f3fe6080604052600436106101ee5760003560e01c806351958a561161010d57806395d89b41116100a0578063c24a0f8b1161006f578063c24a0f8b14610dc1578063c87b56dd14610dec578063d2f0be9914610ea0578063e985e9c514610edb578063fb6c953714610f64576101ee565b806395d89b4114610b94578063a22cb46514610c24578063b88d4fde14610c81578063b948348c14610d93576101ee565b806370a08231116100dc57806370a082311461098057806371adb5e6146109e55780637284e41614610aad5780638da5cb5b14610b3d576101ee565b806351958a56146107915780635cc08cec146107ec5780635d036d1a146108925780636352211e14610905576101ee565b80631e638f2e1161018557806348a0d7541161015457806348a0d754146105f75780634f6ccce71461062257806351605d8014610671578063516f279e14610701576101ee565b80631e638f2e1461047b57806323b872dd146104925780632f745c591461050d57806342842e0e1461057c576101ee565b80630b97bc86116101c15780630b97bc86146103cb5780630ed5a933146103f65780631209b1f61461042557806318160ddd14610450576101ee565b806301ffc9a7146101f357806306fdde0314610265578063081812fc146102f5578063095ea7b314610370575b600080fd5b3480156101ff57600080fd5b5061024b6004803603602081101561021657600080fd5b8101908080357bffffffffffffffffffffffffffffffffffffffffffffffffffffffff19169060200190929190505050610f7b565b604051808215151515815260200191505060405180910390f35b34801561027157600080fd5b5061027a610fe2565b6040518080602001828103825283818151815260200191508051906020019080838360005b838110156102ba57808201518184015260208101905061029f565b50505050905090810190601f1680156102e75780820380516001836020036101000a031916815260200191505b509250505060405180910390f35b34801561030157600080fd5b5061032e6004803603602081101561031857600080fd5b8101908080359060200190929190505050611080565b604051808273ffffffffffffffffffffffffffffffffffffffff1673ffffffffffffffffffffffffffffffffffffffff16815260200191505060405180910390f35b34801561037c57600080fd5b506103c96004803603604081101561039357600080fd5b81019080803573ffffffffffffffffffffffffffffffffffffffff1690602001909291908035906020019092919050505061111b565b005b3480156103d757600080fd5b506103e06112f4565b6040518082815260200191505060405180910390f35b34801561040257600080fd5b5061040b6112fa565b604051808215151515815260200191505060405180910390f35b34801561043157600080fd5b5061043a611311565b6040518082815260200191505060405180910390f35b34801561045c57600080fd5b50610465611317565b6040518082815260200191505060405180910390f35b34801561048757600080fd5b50610490611324565b005b34801561049e57600080fd5b5061050b600480360360608110156104b557600080fd5b81019080803573ffffffffffffffffffffffffffffffffffffffff169060200190929190803573ffffffffffffffffffffffffffffffffffffffff1690602001909291908035906020019092919050505061144c565b005b34801561051957600080fd5b506105666004803603604081101561053057600080fd5b81019080803573ffffffffffffffffffffffffffffffffffffffff169060200190929190803590602001909291905050506114bb565b6040518082815260200191505060405180910390f35b34801561058857600080fd5b506105f56004803603606081101561059f57600080fd5b81019080803573ffffffffffffffffffffffffffffffffffffffff169060200190929190803573ffffffffffffffffffffffffffffffffffffffff1690602001909291908035906020019092919050505061157a565b005b34801561060357600080fd5b5061060c61159a565b6040518082815260200191505060405180910390f35b34801561062e57600080fd5b5061065b6004803603602081101561064557600080fd5b81019080803590602001909291905050506115a0565b6040518082815260200191505060405180910390f35b34801561067d57600080fd5b50610686611620565b6040518080602001828103825283818151815260200191508051906020019080838360005b838110156106c65780820151818401526020810190506106ab565b50505050905090810190601f1680156106f35780820380516001836020036101000a031916815260200191505b509250505060405180910390f35b34801561070d57600080fd5b506107166116be565b6040518080602001828103825283818151815260200191508051906020019080838360005b8381101561075657808201518184015260208101905061073b565b50505050905090810190601f1680156107835780820380516001836020036101000a031916815260200191505b509250505060405180910390f35b34801561079d57600080fd5b506107ea600480360360408110156107b457600080fd5b81019080803573ffffffffffffffffffffffffffffffffffffffff1690602001909291908035906020019092919050505061175c565b005b3480156107f857600080fd5b5061083b6004803603602081101561080f57600080fd5b81019080803573ffffffffffffffffffffffffffffffffffffffff16906020019092919050505061180e565b6040518080602001828103825283818151815260200191508051906020019060200280838360005b8381101561087e578082015181840152602081019050610863565b505050509050019250505060405180910390f35b34801561089e57600080fd5b506108eb600480360360408110156108b557600080fd5b81019080803573ffffffffffffffffffffffffffffffffffffffff1690602001909291908035906020019092919050505061186f565b604051808215151515815260200191505060405180910390f35b34801561091157600080fd5b5061093e6004803603602081101561092857600080fd5b8101908080359060200190929190505050611970565b604051808273ffffffffffffffffffffffffffffffffffffffff1673ffffffffffffffffffffffffffffffffffffffff16815260200191505060405180910390f35b34801561098c57600080fd5b506109cf600480360360208110156109a357600080fd5b81019080803573ffffffffffffffffffffffffffffffffffffffff169060200190929190505050611a38565b6040518082815260200191505060405180910390f35b3480156109f157600080fd5b50610aab60048036036020811015610a0857600080fd5b8101908080359060200190640100000000811115610a2557600080fd5b820183602082011115610a3757600080fd5b80359060200191846001830284011164010000000083111715610a5957600080fd5b91908080601f016020809104026020016040519081016040528093929190818152602001838380828437600081840152601f19601f820116905080830192505050505050509192919290505050611b0d565b005b348015610ab957600080fd5b50610ac2611b27565b6040518080602001828103825283818151815260200191508051906020019080838360005b83811015610b02578082015181840152602081019050610ae7565b50505050905090810190601f168015610b2f5780820380516001836020036101000a031916815260200191505b509250505060405180910390f35b348015610b4957600080fd5b50610b52611bc5565b604051808273ffffffffffffffffffffffffffffffffffffffff1673ffffffffffffffffffffffffffffffffffffffff16815260200191505060405180910390f35b348015610ba057600080fd5b50610ba9611beb565b6040518080602001828103825283818151815260200191508051906020019080838360005b83811015610be9578082015181840152602081019050610bce565b50505050905090810190601f168015610c165780820380516001836020036101000a031916815260200191505b509250505060405180910390f35b348015610c3057600080fd5b50610c7f60048036036040811015610c4757600080fd5b81019080803573ffffffffffffffffffffffffffffffffffffffff169060200190929190803515159060200190929190505050611c8d565b005b348015610c8d57600080fd5b50610d9160048036036080811015610ca457600080fd5b81019080803573ffffffffffffffffffffffffffffffffffffffff169060200190929190803573ffffffffffffffffffffffffffffffffffffffff1690602001909291908035906020019092919080359060200190640100000000811115610d0b57600080fd5b820183602082011115610d1d57600080fd5b80359060200191846001830284011164010000000083111715610d3f57600080fd5b91908080601f016020809104026020016040519081016040528093929190818152602001838380828437600081840152601f19601f820116905080830192505050505050509192919290505050611e30565b005b610dbf60048036036020811015610da957600080fd5b8101908080359060200190929190505050611ea2565b005b348015610dcd57600080fd5b50610dd6612045565b6040518082815260200191505060405180910390f35b348015610df857600080fd5b50610e2560048036036020811015610e0f57600080fd5b810190808035906020019092919050505061204b565b6040518080602001828103825283818151815260200191508051906020019080838360005b83811015610e65578082015181840152602081019050610e4a565b50505050905090810190601f168015610e925780820380516001836020036101000a031916815260200191505b509250505060405180910390f35b348015610eac57600080fd5b50610ed960048036036020811015610ec357600080fd5b810190808035906020019092919050505061215e565b005b348015610ee757600080fd5b50610f4a60048036036040811015610efe57600080fd5b81019080803573ffffffffffffffffffffffffffffffffffffffff169060200190929190803573ffffffffffffffffffffffffffffffffffffffff1690602001909291905050506122bb565b604051808215151515815260200191505060405180910390f35b348015610f7057600080fd5b50610f7961234f565b005b6000806000837bffffffffffffffffffffffffffffffffffffffffffffffffffffffff19167bffffffffffffffffffffffffffffffffffffffffffffffffffffffff1916815260200190815260200160002060009054906101000a900460ff169050919050565b600c8054600181600116156101000203166002900480601f0160208091040260200160405190810160405280929190818152602001828054600181600116156101000203166002900480156110785780601f1061104d57610100808354040283529160200191611078565b820191906000526020600020905b81548152906001019060200180831161105b57829003601f168201915b505050505081565b600061108b82612412565b6110e0576040517f08c379a000000000000000000000000000000000000000000000000000000000815260040180806020018281038252602c8152602001806136fa602c913960400191505060405180910390fd5b6002600083815260200190815260200160002060009054906101000a900473ffffffffffffffffffffffffffffffffffffffff169050919050565b600061112682611970565b90508073ffffffffffffffffffffffffffffffffffffffff168373ffffffffffffffffffffffffffffffffffffffff1614156111ad576040517f08c379a00000000000000000000000000000000000000000000000000000000081526004018080602001828103825260218152602001806137d76021913960400191505060405180910390fd5b8073ffffffffffffffffffffffffffffffffffffffff163373ffffffffffffffffffffffffffffffffffffffff1614806111ed57506111ec81336122bb565b5b611242576040517f08c379a000000000000000000000000000000000000000000000000000000000815260040180806020018281038252603881526020018061364e6038913960400191505060405180910390fd5b826002600084815260200190815260200160002060006101000a81548173ffffffffffffffffffffffffffffffffffffffff021916908373ffffffffffffffffffffffffffffffffffffffff160217905550818373ffffffffffffffffffffffffffffffffffffffff168273ffffffffffffffffffffffffffffffffffffffff167f8c5be1e5ebec7d5bd14f71427d1e84f3dd0314c0f7b2291e5b200ac8c7c3b92560405160405180910390a4505050565b600d5481565b6000601560009054906101000a900460ff16905090565b60165481565b6000600780549050905090565b601760009054906101000a900473ffffffffffffffffffffffffffffffffffffffff1673ffffffffffffffffffffffffffffffffffffffff163373ffffffffffffffffffffffffffffffffffffffff16146113ca576040517f08c379a000000000000000000000000000000000000000000000000000000000815260040180806020018281038252603281526020018061361c6032913960400191505060405180910390fd5b601760009054906101000a900473ffffffffffffffffffffffffffffffffffffffff1673ffffffffffffffffffffffffffffffffffffffff166108fc3073ffffffffffffffffffffffffffffffffffffffff16319081150290604051600060405180830381858888f19350505050158015611449573d6000803e3d6000fd5b50565b6114563382612484565b6114ab576040517f08c379a00000000000000000000000000000000000000000000000000000000081526004018080602001828103825260318152602001806137f86031913960400191505060405180910390fd5b6114b6838383612578565b505050565b60006114c683611a38565b821061151d576040517f08c379a000000000000000000000000000000000000000000000000000000000815260040180806020018281038252602b81526020018061356f602b913960400191505060405180910390fd5b600560008473ffffffffffffffffffffffffffffffffffffffff1673ffffffffffffffffffffffffffffffffffffffff168152602001908152602001600020828154811061156757fe5b9060005260206000200154905092915050565b61159583838360405180602001604052806000815250611e30565b505050565b60105481565b60006115aa611317565b8210611601576040517f08c379a000000000000000000000000000000000000000000000000000000000815260040180806020018281038252602c815260200180613829602c913960400191505060405180910390fd5b6007828154811061160e57fe5b90600052602060002001549050919050565b60148054600181600116156101000203166002900480601f0160208091040260200160405190810160405280929190818152602001828054600181600116156101000203166002900480156116b65780601f1061168b576101008083540402835291602001916116b6565b820191906000526020600020905b81548152906001019060200180831161169957829003601f168201915b505050505081565b60118054600181600116156101000203166002900480601f0160208091040260200160405190810160405280929190818152602001828054600181600116156101000203166002900480156117545780601f1061172957610100808354040283529160200191611754565b820191906000526020600020905b81548152906001019060200180831161173757829003601f168201915b505050505081565b8173ffffffffffffffffffffffffffffffffffffffff16600073ffffffffffffffffffffffffffffffffffffffff1614156117ff576040517f08c379a00000000000000000000000000000000000000000000000000000000081526004018080602001828103825260188152602001807f696e76616c696420616464726573732070726f7669646564000000000000000081525060200191505060405180910390fd5b61180a33838361144c565b5050565b60606118198261259c565b80548060200260200160405190810160405280929190818152602001828054801561186357602002820191906000526020600020905b81548152602001906001019080831161184f575b50505050509050919050565b6000601760009054906101000a900473ffffffffffffffffffffffffffffffffffffffff1673ffffffffffffffffffffffffffffffffffffffff163373ffffffffffffffffffffffffffffffffffffffff1614611917576040517f08c379a000000000000000000000000000000000000000000000000000000000815260040180806020018281038252603281526020018061361c6032913960400191505060405180910390fd5b8273ffffffffffffffffffffffffffffffffffffffff1661193783611970565b73ffffffffffffffffffffffffffffffffffffffff1614156119655761195c826125e4565b6001905061196a565b600090505b92915050565b6000806001600084815260200190815260200160002060009054906101000a900473ffffffffffffffffffffffffffffffffffffffff169050600073ffffffffffffffffffffffffffffffffffffffff168173ffffffffffffffffffffffffffffffffffffffff161415611a2f576040517f08c379a00000000000000000000000000000000000000000000000000000000081526004018080602001828103825260298152602001806136b06029913960400191505060405180910390fd5b80915050919050565b60008073ffffffffffffffffffffffffffffffffffffffff168273ffffffffffffffffffffffffffffffffffffffff161415611abf576040517f08c379a000000000000000000000000000000000000000000000000000000000815260040180806020018281038252602a815260200180613686602a913960400191505060405180910390fd5b611b06600360008473ffffffffffffffffffffffffffffffffffffffff1673ffffffffffffffffffffffffffffffffffffffff1681526020019081526020016000206125f9565b9050919050565b8060149080519060200190611b2392919061342e565b5050565b60138054600181600116156101000203166002900480601f016020809104026020016040519081016040528092919081815260200182805460018160011615610100020316600290048015611bbd5780601f10611b9257610100808354040283529160200191611bbd565b820191906000526020600020905b815481529060010190602001808311611ba057829003601f168201915b505050505081565b601760009054906101000a900473ffffffffffffffffffffffffffffffffffffffff1681565b6060600a8054600181600116156101000203166002900480601f016020809104026020016040519081016040528092919081815260200182805460018160011615610100020316600290048015611c835780601f10611c5857610100808354040283529160200191611c83565b820191906000526020600020905b815481529060010190602001808311611c6657829003601f168201915b5050505050905090565b3373ffffffffffffffffffffffffffffffffffffffff168273ffffffffffffffffffffffffffffffffffffffff161415611d2f576040517f08c379a00000000000000000000000000000000000000000000000000000000081526004018080602001828103825260198152602001807f4552433732313a20617070726f766520746f2063616c6c65720000000000000081525060200191505060405180910390fd5b80600460003373ffffffffffffffffffffffffffffffffffffffff1673ffffffffffffffffffffffffffffffffffffffff16815260200190815260200160002060008473ffffffffffffffffffffffffffffffffffffffff1673ffffffffffffffffffffffffffffffffffffffff16815260200190815260200160002060006101000a81548160ff0219169083151502179055508173ffffffffffffffffffffffffffffffffffffffff163373ffffffffffffffffffffffffffffffffffffffff167f17307eab39ab6107e8899845ad3d59bd9653f200f220920489ca2b5937696c3183604051808215151515815260200191505060405180910390a35050565b611e3b84848461144c565b611e4784848484612607565b611e9c576040517f08c379a000000000000000000000000000000000000000000000000000000000815260040180806020018281038252603281526020018061359a6032913960400191505060405180910390fd5b50505050565b601260009054906101000a900460ff1660ff16811115611f0d576040517f08c379a000000000000000000000000000000000000000000000000000000000815260040180806020018281038252602b8152602001806137ac602b913960400191505060405180910390fd5b806010541015611f68576040517f08c379a00000000000000000000000000000000000000000000000000000000081526004018080602001828103825260278152602001806135486027913960400191505060405180910390fd5b611f7d816016546127f090919063ffffffff16565b341015611ff2576040517f08c379a00000000000000000000000000000000000000000000000000000000081526004018080602001828103825260158152602001807f6e6f7420656e6f756768206d6f6e65792073656e74000000000000000000000081525060200191505060405180910390fd5b60008090505b818160ff16101561204157600e600081548092919060010191905055506010600081548092919060019003919050555061203433600e54612876565b8080600101915050611ff8565b5050565b600f5481565b606061205682612412565b6120ab576040517f08c379a000000000000000000000000000000000000000000000000000000000815260040180806020018281038252602f81526020018061377d602f913960400191505060405180910390fd5b600b60008381526020019081526020016000208054600181600116156101000203166002900480601f0160208091040260200160405190810160405280929190818152602001828054600181600116156101000203166002900480156121525780601f1061212757610100808354040283529160200191612152565b820191906000526020600020905b81548152906001019060200180831161213557829003601f168201915b50505050509050919050565b3373ffffffffffffffffffffffffffffffffffffffff16600073ffffffffffffffffffffffffffffffffffffffff161415612201576040517f08c379a00000000000000000000000000000000000000000000000000000000081526004018080602001828103825260188152602001807f696e76616c696420616464726573732070726f7669646564000000000000000081525060200191505060405180910390fd5b601560009054906101000a900460ff16612266576040517f08c379a000000000000000000000000000000000000000000000000000000000815260040180806020018281038252602e81526020018061374f602e913960400191505060405180910390fd5b61226f816125e4565b3373ffffffffffffffffffffffffffffffffffffffff166108fc6016549081150290604051600060405180830381858888f193505050501580156122b7573d6000803e3d6000fd5b5050565b6000600460008473ffffffffffffffffffffffffffffffffffffffff1673ffffffffffffffffffffffffffffffffffffffff16815260200190815260200160002060008373ffffffffffffffffffffffffffffffffffffffff1673ffffffffffffffffffffffffffffffffffffffff16815260200190815260200160002060009054906101000a900460ff16905092915050565b601760009054906101000a900473ffffffffffffffffffffffffffffffffffffffff1673ffffffffffffffffffffffffffffffffffffffff163373ffffffffffffffffffffffffffffffffffffffff16146123f5576040517f08c379a000000000000000000000000000000000000000000000000000000000815260040180806020018281038252603281526020018061361c6032913960400191505060405180910390fd5b6001601560006101000a81548160ff021916908315150217905550565b6000806001600084815260200190815260200160002060009054906101000a900473ffffffffffffffffffffffffffffffffffffffff169050600073ffffffffffffffffffffffffffffffffffffffff168173ffffffffffffffffffffffffffffffffffffffff161415915050919050565b600061248f82612412565b6124e4576040517f08c379a000000000000000000000000000000000000000000000000000000000815260040180806020018281038252602c8152602001806135f0602c913960400191505060405180910390fd5b60006124ef83611970565b90508073ffffffffffffffffffffffffffffffffffffffff168473ffffffffffffffffffffffffffffffffffffffff16148061255e57508373ffffffffffffffffffffffffffffffffffffffff1661254684611080565b73ffffffffffffffffffffffffffffffffffffffff16145b8061256f575061256e81856122bb565b5b91505092915050565b612583838383612897565b61258d8382612af2565b6125978282612c90565b505050565b6000600560008373ffffffffffffffffffffffffffffffffffffffff1673ffffffffffffffffffffffffffffffffffffffff1681526020019081526020016000209050919050565b6125f66125f082611970565b82612d57565b50565b600081600001549050919050565b60006126288473ffffffffffffffffffffffffffffffffffffffff16612db4565b61263557600190506127e8565b60008473ffffffffffffffffffffffffffffffffffffffff1663150b7a02338887876040518563ffffffff1660e01b8152600401808573ffffffffffffffffffffffffffffffffffffffff1673ffffffffffffffffffffffffffffffffffffffff1681526020018473ffffffffffffffffffffffffffffffffffffffff1673ffffffffffffffffffffffffffffffffffffffff16815260200183815260200180602001828103825283818151815260200191508051906020019080838360005b838110156127105780820151818401526020810190506126f5565b50505050905090810190601f16801561273d5780820380516001836020036101000a031916815260200191505b5095505050505050602060405180830381600087803b15801561275f57600080fd5b505af1158015612773573d6000803e3d6000fd5b505050506040513d602081101561278957600080fd5b8101908080519060200190929190505050905063150b7a0260e01b7bffffffffffffffffffffffffffffffffffffffffffffffffffffffff1916817bffffffffffffffffffffffffffffffffffffffffffffffffffffffff1916149150505b949350505050565b6000808314156128035760009050612870565b600082840290508284828161281457fe5b041461286b576040517f08c379a00000000000000000000000000000000000000000000000000000000081526004018080602001828103825260218152602001806136d96021913960400191505060405180910390fd5b809150505b92915050565b6128808282612dc7565b61288a8282612c90565b61289381612fdf565b5050565b8273ffffffffffffffffffffffffffffffffffffffff166128b782611970565b73ffffffffffffffffffffffffffffffffffffffff1614612923576040517f08c379a00000000000000000000000000000000000000000000000000000000081526004018080602001828103825260298152602001806137266029913960400191505060405180910390fd5b600073ffffffffffffffffffffffffffffffffffffffff168273ffffffffffffffffffffffffffffffffffffffff1614156129a9576040517f08c379a00000000000000000000000000000000000000000000000000000000081526004018080602001828103825260248152602001806135cc6024913960400191505060405180910390fd5b6129b28161302b565b6129f9600360008573ffffffffffffffffffffffffffffffffffffffff1673ffffffffffffffffffffffffffffffffffffffff1681526020019081526020016000206130e9565b612a40600360008473ffffffffffffffffffffffffffffffffffffffff1673ffffffffffffffffffffffffffffffffffffffff16815260200190815260200160002061310c565b816001600083815260200190815260200160002060006101000a81548173ffffffffffffffffffffffffffffffffffffffff021916908373ffffffffffffffffffffffffffffffffffffffff160217905550808273ffffffffffffffffffffffffffffffffffffffff168473ffffffffffffffffffffffffffffffffffffffff167fddf252ad1be2c89b69c2b068fc378daa952ba7f163c4a11628f55a4df523b3ef60405160405180910390a4505050565b6000612b4a6001600560008673ffffffffffffffffffffffffffffffffffffffff1673ffffffffffffffffffffffffffffffffffffffff1681526020019081526020016000208054905061312290919063ffffffff16565b9050600060066000848152602001908152602001600020549050818114612c37576000600560008673ffffffffffffffffffffffffffffffffffffffff1673ffffffffffffffffffffffffffffffffffffffff1681526020019081526020016000208381548110612bb757fe5b9060005260206000200154905080600560008773ffffffffffffffffffffffffffffffffffffffff1673ffffffffffffffffffffffffffffffffffffffff1681526020019081526020016000208381548110612c0f57fe5b9060005260206000200181905550816006600083815260200190815260200160002081905550505b600560008573ffffffffffffffffffffffffffffffffffffffff1673ffffffffffffffffffffffffffffffffffffffff168152602001908152602001600020805480919060019003612c8991906134ae565b5050505050565b600560008373ffffffffffffffffffffffffffffffffffffffff1673ffffffffffffffffffffffffffffffffffffffff168152602001908152602001600020805490506006600083815260200190815260200160002081905550600560008373ffffffffffffffffffffffffffffffffffffffff1673ffffffffffffffffffffffffffffffffffffffff1681526020019081526020016000208190806001815401808255809150509060018203906000526020600020016000909192909190915055505050565b612d6182826131ab565b6000600b600083815260200190815260200160002080546001816001161561010002031660029004905014612db057600b60008281526020019081526020016000206000612daf91906134da565b5b5050565b600080823b905060008111915050919050565b600073ffffffffffffffffffffffffffffffffffffffff168273ffffffffffffffffffffffffffffffffffffffff161415612e6a576040517f08c379a00000000000000000000000000000000000000000000000000000000081526004018080602001828103825260208152602001807f4552433732313a206d696e7420746f20746865207a65726f206164647265737381525060200191505060405180910390fd5b612e7381612412565b15612ee6576040517f08c379a000000000000000000000000000000000000000000000000000000000815260040180806020018281038252601c8152602001807f4552433732313a20746f6b656e20616c7265616479206d696e7465640000000081525060200191505060405180910390fd5b816001600083815260200190815260200160002060006101000a81548173ffffffffffffffffffffffffffffffffffffffff021916908373ffffffffffffffffffffffffffffffffffffffff160217905550612f7f600360008473ffffffffffffffffffffffffffffffffffffffff1673ffffffffffffffffffffffffffffffffffffffff16815260200190815260200160002061310c565b808273ffffffffffffffffffffffffffffffffffffffff16600073ffffffffffffffffffffffffffffffffffffffff167fddf252ad1be2c89b69c2b068fc378daa952ba7f163c4a11628f55a4df523b3ef60405160405180910390a45050565b6007805490506008600083815260200190815260200160002081905550600781908060018154018082558091505090600182039060005260206000200160009091929091909150555050565b600073ffffffffffffffffffffffffffffffffffffffff166002600083815260200190815260200160002060009054906101000a900473ffffffffffffffffffffffffffffffffffffffff1673ffffffffffffffffffffffffffffffffffffffff16146130e65760006002600083815260200190815260200160002060006101000a81548173ffffffffffffffffffffffffffffffffffffffff021916908373ffffffffffffffffffffffffffffffffffffffff1602179055505b50565b6131016001826000015461312290919063ffffffff16565b816000018190555050565b6001816000016000828254019250508190555050565b60008282111561319a576040517f08c379a000000000000000000000000000000000000000000000000000000000815260040180806020018281038252601e8152602001807f536166654d6174683a207375627472616374696f6e206f766572666c6f77000081525060200191505060405180910390fd5b600082840390508091505092915050565b6131b582826131e5565b6131bf8282612af2565b600060066000838152602001908152602001600020819055506131e181613374565b5050565b8173ffffffffffffffffffffffffffffffffffffffff1661320582611970565b73ffffffffffffffffffffffffffffffffffffffff1614613271576040517f08c379a00000000000000000000000000000000000000000000000000000000081526004018080602001828103825260258152602001806138556025913960400191505060405180910390fd5b61327a8161302b565b6132c1600360008473ffffffffffffffffffffffffffffffffffffffff1673ffffffffffffffffffffffffffffffffffffffff1681526020019081526020016000206130e9565b60006001600083815260200190815260200160002060006101000a81548173ffffffffffffffffffffffffffffffffffffffff021916908373ffffffffffffffffffffffffffffffffffffffff16021790555080600073ffffffffffffffffffffffffffffffffffffffff168373ffffffffffffffffffffffffffffffffffffffff167fddf252ad1be2c89b69c2b068fc378daa952ba7f163c4a11628f55a4df523b3ef60405160405180910390a45050565b600061338f600160078054905061312290919063ffffffff16565b90506000600860008481526020019081526020016000205490506000600783815481106133b857fe5b9060005260206000200154905080600783815481106133d357fe5b9060005260206000200181905550816008600083815260200190815260200160002081905550600780548091906001900361340e91906134ae565b506000600860008681526020019081526020016000208190555050505050565b828054600181600116156101000203166002900490600052602060002090601f016020900481019282601f1061346f57805160ff191683800117855561349d565b8280016001018555821561349d579182015b8281111561349c578251825591602001919060010190613481565b5b5090506134aa9190613522565b5090565b8154818355818111156134d5578183600052602060002091820191016134d49190613522565b5b505050565b50805460018160011615610100020316600290046000825580601f10613500575061351f565b601f01602090049060005260206000209081019061351e9190613522565b5b50565b61354491905b80821115613540576000816000905550600101613528565b5090565b9056fe6e6f7420656e6f756768207469636b6574207175616e7469747920617661696c61626c65212121455243373231456e756d657261626c653a206f776e657220696e646578206f7574206f6620626f756e64734552433732313a207472616e7366657220746f206e6f6e20455243373231526563656976657220696d706c656d656e7465724552433732313a207472616e7366657220746f20746865207a65726f20616464726573734552433732313a206f70657261746f7220717565727920666f72206e6f6e6578697374656e7420746f6b656e6f6e6c79206576656e74206f776e657220697320616c6c6f77656420746f20706572666f726d207468697320616374696f6e4552433732313a20617070726f76652063616c6c6572206973206e6f74206f776e6572206e6f7220617070726f76656420666f7220616c6c4552433732313a2062616c616e636520717565727920666f7220746865207a65726f20616464726573734552433732313a206f776e657220717565727920666f72206e6f6e6578697374656e7420746f6b656e536166654d6174683a206d756c7469706c69636174696f6e206f766572666c6f774552433732313a20617070726f76656420717565727920666f72206e6f6e6578697374656e7420746f6b656e4552433732313a207472616e73666572206f6620746f6b656e2074686174206973206e6f74206f776e726566756e64206973206f6e6c7920617661696c61626c6520666f7220636163616e63656c6564206576656e74734552433732314d657461646174613a2055524920717565727920666f72206e6f6e6578697374656e7420746f6b656e63616e206e6f74207075726368617365206d6f7265207468616e2035207469636b6574206174206f6e63654552433732313a20617070726f76616c20746f2063757272656e74206f776e65724552433732313a207472616e736665722063616c6c6572206973206e6f74206f776e6572206e6f7220617070726f766564455243373231456e756d657261626c653a20676c6f62616c20696e646578206f7574206f6620626f756e64734552433732313a206275726e206f6620746f6b656e2074686174206973206e6f74206f776ea165627a7a723058201201cf22017082ad66444725a1df9cd391362922ccadc438d17fdc69560a8fb20029a165627a7a723058206ec8688f0c676ef0470de9982be064387a22bf3bad6428d76c385e514d4067590029",
  "source": "pragma solidity ^0.5.0;\n\nimport './Event.sol';\n\n/**\n@title Event factory */\ncontract EventFactory {\n\n\n        /**\n        @dev created and deployed new event and saves it in the event list array\n        @param _name title of the event to be created \n        @param start start date of event in unix timestamp\n        @param end end date of event in unix timestamp \n        @param supply total supply of event ticket available for the event\n        @param ticketPrice price of single ticket price in wei\n        @param description description of the event \n        @param location location of the event\n        @return emits eveneCreated log\n        */\n    Event[] public deployedEvents;\n    event eventCreated(Event _address, string _name, uint _ticketPrice, string location, uint startDate, uint endDate, string indexed _filterName, string indexed _filterLocation);\n    \n    function createEvent(string memory  _name, uint _start, uint _end,  uint supply, uint _ticketPrice, string memory _description, string memory _location) public  {\n        address payable sender = msg.sender;\n        Event newEvent = new Event(sender, _name, _start, _end,_description, _location, supply, _ticketPrice );\n        deployedEvents.push(newEvent);\n        emit eventCreated(newEvent, _name, _ticketPrice, _location, _start, _end, _name, _location);\n\n    }\n\n    /**\n\n    @dev returns list of event addresses\n    @return deployedEvents array of event address */\n   function getDeployedEvents() public view returns(Event[] memory) {\n        return deployedEvents;\n    }\n    \n}\n",
  "sourcePath": "/var/www/html/bionic_event_dapp/contracts/EventFactory.sol",
  "compiler": {
    "name": "solc",
    "version": "0.5.8+commit.23d335f2.Emscripten.clang"
  },
  "schemaVersion": "3.0.16",
  "updatedAt": "2019-11-20T13:02:05.869Z",
  "devdoc": {
    "methods": {
      "getDeployedEvents()": {
        "details": "returns list of event addresses",
        "return": "deployedEvents array of event address "
      }
    },
    "title": "Event factory "
  },
  "userdoc": {
    "methods": {}
  }
}