{
  "contractName": "EventFactory",
  "abi": [
    {
      "constant": true,
      "inputs": [
        {
          "name": "",
          "type": "uint256"
        }
      ],
      "name": "deployedEvents",
      "outputs": [
        {
          "name": "",
          "type": "address"
        }
      ],
      "payable": false,
      "stateMutability": "view",
      "type": "function"
    },
    {
      "anonymous": false,
      "inputs": [
        {
          "indexed": false,
          "name": "_address",
          "type": "address"
        },
        {
          "indexed": false,
          "name": "_name",
          "type": "string"
        },
        {
          "indexed": false,
          "name": "_ticketPrice",
          "type": "uint256"
        },
        {
          "indexed": false,
          "name": "location",
          "type": "string"
        },
        {
          "indexed": false,
          "name": "startDate",
          "type": "uint256"
        },
        {
          "indexed": false,
          "name": "endDate",
          "type": "uint256"
        },
        {
          "indexed": true,
          "name": "_filterName",
          "type": "string"
        },
        {
          "indexed": true,
          "name": "_filterLocation",
          "type": "string"
        }
      ],
      "name": "eventCreated",
      "type": "event"
    },
    {
      "constant": false,
      "inputs": [
        {
          "name": "_name",
          "type": "string"
        },
        {
          "name": "_start",
          "type": "uint256"
        },
        {
          "name": "_end",
          "type": "uint256"
        },
        {
          "name": "supply",
          "type": "uint256"
        },
        {
          "name": "_ticketPrice",
          "type": "uint256"
        },
        {
          "name": "_description",
          "type": "string"
        },
        {
          "name": "_location",
          "type": "string"
        }
      ],
      "name": "createEvent",
      "outputs": [],
      "payable": false,
      "stateMutability": "nonpayable",
      "type": "function"
    },
    {
      "constant": true,
      "inputs": [],
      "name": "getDeployedEvents",
      "outputs": [
        {
          "name": "",
          "type": "address[]"
        }
      ],
      "payable": false,
      "stateMutability": "view",
      "type": "function"
    }
  ],
  "bytecode": "0x608060405234801561001057600080fd5b50614801806100206000396000f3fe608060405234801561001057600080fd5b50600436106100415760003560e01c80633812783e14610046578063eade22f6146100a5578063efb9a1b214610113575b600080fd5b61004e610324565b6040518080602001828103825283818151815260200191508051906020019060200280838360005b83811015610091578082015181840152602081019050610076565b505050509050019250505060405180910390f35b6100d1600480360360208110156100bb57600080fd5b81019080803590602001909291905050506103b2565b604051808273ffffffffffffffffffffffffffffffffffffffff1673ffffffffffffffffffffffffffffffffffffffff16815260200191505060405180910390f35b610322600480360360e081101561012957600080fd5b810190808035906020019064010000000081111561014657600080fd5b82018360208201111561015857600080fd5b8035906020019184600183028401116401000000008311171561017a57600080fd5b91908080601f016020809104026020016040519081016040528093929190818152602001838380828437600081840152601f19601f820116905080830192505050505050509192919290803590602001909291908035906020019092919080359060200190929190803590602001909291908035906020019064010000000081111561020557600080fd5b82018360208201111561021757600080fd5b8035906020019184600183028401116401000000008311171561023957600080fd5b91908080601f016020809104026020016040519081016040528093929190818152602001838380828437600081840152601f19601f8201169050808301925050505050505091929192908035906020019064010000000081111561029c57600080fd5b8201836020820111156102ae57600080fd5b803590602001918460018302840111640100000000831117156102d057600080fd5b91908080601f016020809104026020016040519081016040528093929190818152602001838380828437600081840152601f19601f8201169050808301925050505050505091929192905050506103ee565b005b606060008054806020026020016040519081016040528092919081815260200182805480156103a857602002820191906000526020600020905b8160009054906101000a900473ffffffffffffffffffffffffffffffffffffffff1673ffffffffffffffffffffffffffffffffffffffff168152602001906001019080831161035e575b5050505050905090565b600081815481106103bf57fe5b906000526020600020016000915054906101000a900473ffffffffffffffffffffffffffffffffffffffff1681565b600033905060008189898987878b8b60405161040990610846565b808973ffffffffffffffffffffffffffffffffffffffff1673ffffffffffffffffffffffffffffffffffffffff16815260200180602001888152602001878152602001806020018060200186815260200185815260200184810384528b818151815260200191508051906020019080838360005b8381101561049857808201518184015260208101905061047d565b50505050905090810190601f1680156104c55780820380516001836020036101000a031916815260200191505b50848103835288818151815260200191508051906020019080838360005b838110156104fe5780820151818401526020810190506104e3565b50505050905090810190601f16801561052b5780820380516001836020036101000a031916815260200191505b50848103825287818151815260200191508051906020019080838360005b83811015610564578082015181840152602081019050610549565b50505050905090810190601f1680156105915780820380516001836020036101000a031916815260200191505b509b505050505050505050505050604051809103906000f0801580156105bb573d6000803e3d6000fd5b50905060008190806001815401808255809150509060018203906000526020600020016000909192909190916101000a81548173ffffffffffffffffffffffffffffffffffffffff021916908373ffffffffffffffffffffffffffffffffffffffff16021790555050826040518082805190602001908083835b602083106106585780518252602082019150602081019050602083039250610635565b6001836020036101000a0380198251168184511680821785525050505050509050019150506040518091039020896040518082805190602001908083835b602083106106b95780518252602082019150602081019050602083039250610696565b6001836020036101000a03801982511681845116808217855250505050505090500191505060405180910390207f6ff0bb589eb87a40aa0cfd5832c5c22dc1c626b86daae2eaac21b03a77302942838c89888e8e604051808773ffffffffffffffffffffffffffffffffffffffff1673ffffffffffffffffffffffffffffffffffffffff1681526020018060200186815260200180602001858152602001848152602001838103835288818151815260200191508051906020019080838360005b8381101561079557808201518184015260208101905061077a565b50505050905090810190601f1680156107c25780820380516001836020036101000a031916815260200191505b50838103825286818151815260200191508051906020019080838360005b838110156107fb5780820151818401526020810190506107e0565b50505050905090810190601f1680156108285780820380516001836020036101000a031916815260200191505b509850505050505050505060405180910390a3505050505050505050565b613f8180620008558339019056fe60806040526005601260006101000a81548160ff021916908360ff1602179055503480156200002d57600080fd5b5060405162003f8138038062003f8183398101806040526101008110156200005457600080fd5b810190808051906020019092919080516401000000008111156200007757600080fd5b828101905060208101848111156200008e57600080fd5b8151856001820283011164010000000082111715620000ac57600080fd5b505092919060200180519060200190929190805190602001909291908051640100000000811115620000dd57600080fd5b82810190506020810184811115620000f457600080fd5b81518560018202830111640100000000821117156200011257600080fd5b505092919060200180516401000000008111156200012f57600080fd5b828101905060208101848111156200014657600080fd5b81518560018202830111640100000000821117156200016457600080fd5b50509291906020018051906020019092919080519060200190929190505050866040518060400160405280600381526020017f544b5400000000000000000000000000000000000000000000000000000000008152508181620001d46301ffc9a760e01b6200030860201b60201c565b620001ec6380ac58cd60e01b6200030860201b60201c565b6200020463780e9d6360e01b6200030860201b60201c565b81600990805190602001906200021c92919062000411565b5080600a90805190602001906200023592919062000411565b506200024e635b5e139f60e01b6200030860201b60201c565b5050505086600c90805190602001906200026a92919062000411565b5085600d8190555084600f81905550806016819055508160108190555083601390805190602001906200029f92919062000411565b5087601760006101000a81548173ffffffffffffffffffffffffffffffffffffffff021916908373ffffffffffffffffffffffffffffffffffffffff1602179055508260119080519060200190620002f992919062000411565b505050505050505050620004c0565b63ffffffff60e01b817bffffffffffffffffffffffffffffffffffffffffffffffffffffffff19161415620003a5576040517f08c379a000000000000000000000000000000000000000000000000000000000815260040180806020018281038252601c8152602001807f4552433136353a20696e76616c696420696e746572666163652069640000000081525060200191505060405180910390fd5b6001600080837bffffffffffffffffffffffffffffffffffffffffffffffffffffffff19167bffffffffffffffffffffffffffffffffffffffffffffffffffffffff1916815260200190815260200160002060006101000a81548160ff02191690831515021790555050565b828054600181600116156101000203166002900490600052602060002090601f016020900481019282601f106200045457805160ff191683800117855562000485565b8280016001018555821562000485579182015b828111156200048457825182559160200191906001019062000467565b5b50905062000494919062000498565b5090565b620004bd91905b80821115620004b95760008160009055506001016200049f565b5090565b90565b613ab180620004d06000396000f3fe6080604052600436106101ee5760003560e01c806351958a561161010d57806395d89b41116100a0578063c24a0f8b1161006f578063c24a0f8b14610dc1578063c87b56dd14610dec578063d2f0be9914610ea0578063e985e9c514610edb578063fb6c953714610f64576101ee565b806395d89b4114610b94578063a22cb46514610c24578063b88d4fde14610c81578063b948348c14610d93576101ee565b806370a08231116100dc57806370a082311461098057806371adb5e6146109e55780637284e41614610aad5780638da5cb5b14610b3d576101ee565b806351958a56146107915780635cc08cec146107ec5780635d036d1a146108925780636352211e14610905576101ee565b80631e638f2e1161018557806348a0d7541161015457806348a0d754146105f75780634f6ccce71461062257806351605d8014610671578063516f279e14610701576101ee565b80631e638f2e1461047b57806323b872dd146104925780632f745c591461050d57806342842e0e1461057c576101ee565b80630b97bc86116101c15780630b97bc86146103cb5780630ed5a933146103f65780631209b1f61461042557806318160ddd14610450576101ee565b806301ffc9a7146101f357806306fdde0314610265578063081812fc146102f5578063095ea7b314610370575b600080fd5b3480156101ff57600080fd5b5061024b6004803603602081101561021657600080fd5b8101908080357bffffffffffffffffffffffffffffffffffffffffffffffffffffffff19169060200190929190505050610f7b565b604051808215151515815260200191505060405180910390f35b34801561027157600080fd5b5061027a610fe2565b6040518080602001828103825283818151815260200191508051906020019080838360005b838110156102ba57808201518184015260208101905061029f565b50505050905090810190601f1680156102e75780820380516001836020036101000a031916815260200191505b509250505060405180910390f35b34801561030157600080fd5b5061032e6004803603602081101561031857600080fd5b8101908080359060200190929190505050611080565b604051808273ffffffffffffffffffffffffffffffffffffffff1673ffffffffffffffffffffffffffffffffffffffff16815260200191505060405180910390f35b34801561037c57600080fd5b506103c96004803603604081101561039357600080fd5b81019080803573ffffffffffffffffffffffffffffffffffffffff1690602001909291908035906020019092919050505061111b565b005b3480156103d757600080fd5b506103e06112f4565b6040518082815260200191505060405180910390f35b34801561040257600080fd5b5061040b6112fa565b604051808215151515815260200191505060405180910390f35b34801561043157600080fd5b5061043a611311565b6040518082815260200191505060405180910390f35b34801561045c57600080fd5b50610465611317565b6040518082815260200191505060405180910390f35b34801561048757600080fd5b50610490611324565b005b34801561049e57600080fd5b5061050b600480360360608110156104b557600080fd5b81019080803573ffffffffffffffffffffffffffffffffffffffff169060200190929190803573ffffffffffffffffffffffffffffffffffffffff16906020019092919080359060200190929190505050611456565b005b34801561051957600080fd5b506105666004803603604081101561053057600080fd5b81019080803573ffffffffffffffffffffffffffffffffffffffff169060200190929190803590602001909291905050506114c5565b6040518082815260200191505060405180910390f35b34801561058857600080fd5b506105f56004803603606081101561059f57600080fd5b81019080803573ffffffffffffffffffffffffffffffffffffffff169060200190929190803573ffffffffffffffffffffffffffffffffffffffff16906020019092919080359060200190929190505050611584565b005b34801561060357600080fd5b5061060c6115a4565b6040518082815260200191505060405180910390f35b34801561062e57600080fd5b5061065b6004803603602081101561064557600080fd5b81019080803590602001909291905050506115aa565b6040518082815260200191505060405180910390f35b34801561067d57600080fd5b5061068661162a565b6040518080602001828103825283818151815260200191508051906020019080838360005b838110156106c65780820151818401526020810190506106ab565b50505050905090810190601f1680156106f35780820380516001836020036101000a031916815260200191505b509250505060405180910390f35b34801561070d57600080fd5b506107166116c8565b6040518080602001828103825283818151815260200191508051906020019080838360005b8381101561075657808201518184015260208101905061073b565b50505050905090810190601f1680156107835780820380516001836020036101000a031916815260200191505b509250505060405180910390f35b34801561079d57600080fd5b506107ea600480360360408110156107b457600080fd5b81019080803573ffffffffffffffffffffffffffffffffffffffff16906020019092919080359060200190929190505050611766565b005b3480156107f857600080fd5b5061083b6004803603602081101561080f57600080fd5b81019080803573ffffffffffffffffffffffffffffffffffffffff1690602001909291905050506118b7565b6040518080602001828103825283818151815260200191508051906020019060200280838360005b8381101561087e578082015181840152602081019050610863565b505050509050019250505060405180910390f35b34801561089e57600080fd5b506108eb600480360360408110156108b557600080fd5b81019080803573ffffffffffffffffffffffffffffffffffffffff16906020019092919080359060200190929190505050611918565b604051808215151515815260200191505060405180910390f35b34801561091157600080fd5b5061093e6004803603602081101561092857600080fd5b8101908080359060200190929190505050611a19565b604051808273ffffffffffffffffffffffffffffffffffffffff1673ffffffffffffffffffffffffffffffffffffffff16815260200191505060405180910390f35b34801561098c57600080fd5b506109cf600480360360208110156109a357600080fd5b81019080803573ffffffffffffffffffffffffffffffffffffffff169060200190929190505050611ae1565b6040518082815260200191505060405180910390f35b3480156109f157600080fd5b50610aab60048036036020811015610a0857600080fd5b8101908080359060200190640100000000811115610a2557600080fd5b820183602082011115610a3757600080fd5b80359060200191846001830284011164010000000083111715610a5957600080fd5b91908080601f016020809104026020016040519081016040528093929190818152602001838380828437600081840152601f19601f820116905080830192505050505050509192919290505050611bb6565b005b348015610ab957600080fd5b50610ac2611bd0565b6040518080602001828103825283818151815260200191508051906020019080838360005b83811015610b02578082015181840152602081019050610ae7565b50505050905090810190601f168015610b2f5780820380516001836020036101000a031916815260200191505b509250505060405180910390f35b348015610b4957600080fd5b50610b52611c6e565b604051808273ffffffffffffffffffffffffffffffffffffffff1673ffffffffffffffffffffffffffffffffffffffff16815260200191505060405180910390f35b348015610ba057600080fd5b50610ba9611c94565b6040518080602001828103825283818151815260200191508051906020019080838360005b83811015610be9578082015181840152602081019050610bce565b50505050905090810190601f168015610c165780820380516001836020036101000a031916815260200191505b509250505060405180910390f35b348015610c3057600080fd5b50610c7f60048036036040811015610c4757600080fd5b81019080803573ffffffffffffffffffffffffffffffffffffffff169060200190929190803515159060200190929190505050611d36565b005b348015610c8d57600080fd5b50610d9160048036036080811015610ca457600080fd5b81019080803573ffffffffffffffffffffffffffffffffffffffff169060200190929190803573ffffffffffffffffffffffffffffffffffffffff1690602001909291908035906020019092919080359060200190640100000000811115610d0b57600080fd5b820183602082011115610d1d57600080fd5b80359060200191846001830284011164010000000083111715610d3f57600080fd5b91908080601f016020809104026020016040519081016040528093929190818152602001838380828437600081840152601f19601f820116905080830192505050505050509192919290505050611ed9565b005b610dbf60048036036020811015610da957600080fd5b8101908080359060200190929190505050611f4b565b005b348015610dcd57600080fd5b50610dd6612178565b6040518082815260200191505060405180910390f35b348015610df857600080fd5b50610e2560048036036020811015610e0f57600080fd5b810190808035906020019092919050505061217e565b6040518080602001828103825283818151815260200191508051906020019080838360005b83811015610e65578082015181840152602081019050610e4a565b50505050905090810190601f168015610e925780820380516001836020036101000a031916815260200191505b509250505060405180910390f35b348015610eac57600080fd5b50610ed960048036036020811015610ec357600080fd5b8101908080359060200190929190505050612291565b005b348015610ee757600080fd5b50610f4a60048036036040811015610efe57600080fd5b81019080803573ffffffffffffffffffffffffffffffffffffffff169060200190929190803573ffffffffffffffffffffffffffffffffffffffff169060200190929190505050612497565b604051808215151515815260200191505060405180910390f35b348015610f7057600080fd5b50610f7961252b565b005b6000806000837bffffffffffffffffffffffffffffffffffffffffffffffffffffffff19167bffffffffffffffffffffffffffffffffffffffffffffffffffffffff1916815260200190815260200160002060009054906101000a900460ff169050919050565b600c8054600181600116156101000203166002900480601f0160208091040260200160405190810160405280929190818152602001828054600181600116156101000203166002900480156110785780601f1061104d57610100808354040283529160200191611078565b820191906000526020600020905b81548152906001019060200180831161105b57829003601f168201915b505050505081565b600061108b826125ee565b6110e0576040517f08c379a000000000000000000000000000000000000000000000000000000000815260040180806020018281038252602c815260200180613906602c913960400191505060405180910390fd5b6002600083815260200190815260200160002060009054906101000a900473ffffffffffffffffffffffffffffffffffffffff169050919050565b600061112682611a19565b90508073ffffffffffffffffffffffffffffffffffffffff168373ffffffffffffffffffffffffffffffffffffffff1614156111ad576040517f08c379a00000000000000000000000000000000000000000000000000000000081526004018080602001828103825260218152602001806139e36021913960400191505060405180910390fd5b8073ffffffffffffffffffffffffffffffffffffffff163373ffffffffffffffffffffffffffffffffffffffff1614806111ed57506111ec8133612497565b5b611242576040517f08c379a000000000000000000000000000000000000000000000000000000000815260040180806020018281038252603881526020018061385a6038913960400191505060405180910390fd5b826002600084815260200190815260200160002060006101000a81548173ffffffffffffffffffffffffffffffffffffffff021916908373ffffffffffffffffffffffffffffffffffffffff160217905550818373ffffffffffffffffffffffffffffffffffffffff168273ffffffffffffffffffffffffffffffffffffffff167f8c5be1e5ebec7d5bd14f71427d1e84f3dd0314c0f7b2291e5b200ac8c7c3b92560405160405180910390a4505050565b600d5481565b6000601560009054906101000a900460ff16905090565b60165481565b6000600780549050905090565b601760009054906101000a900473ffffffffffffffffffffffffffffffffffffffff1673ffffffffffffffffffffffffffffffffffffffff163373ffffffffffffffffffffffffffffffffffffffff16146113ca576040517f08c379a00000000000000000000000000000000000000000000000000000000081526004018080602001828103825260328152602001806138286032913960400191505060405180910390fd5b600f54421180156113e85750601560009054906101000a900460ff16155b61143d576040517f08c379a00000000000000000000000000000000000000000000000000000000081526004018080602001828103825260308152602001806137246030913960400191505060405180910390fd5b3373ffffffffffffffffffffffffffffffffffffffff16ff5b6114603382612660565b6114b5576040517f08c379a0000000000000000000000000000000000000000000000000000000008152600401808060200182810382526031815260200180613a046031913960400191505060405180910390fd5b6114c0838383612754565b505050565b60006114d083611ae1565b8210611527576040517f08c379a000000000000000000000000000000000000000000000000000000000815260040180806020018281038252602b81526020018061377b602b913960400191505060405180910390fd5b600560008473ffffffffffffffffffffffffffffffffffffffff1673ffffffffffffffffffffffffffffffffffffffff168152602001908152602001600020828154811061157157fe5b9060005260206000200154905092915050565b61159f83838360405180602001604052806000815250611ed9565b505050565b60105481565b60006115b4611317565b821061160b576040517f08c379a000000000000000000000000000000000000000000000000000000000815260040180806020018281038252602c815260200180613a35602c913960400191505060405180910390fd5b6007828154811061161857fe5b90600052602060002001549050919050565b60148054600181600116156101000203166002900480601f0160208091040260200160405190810160405280929190818152602001828054600181600116156101000203166002900480156116c05780601f10611695576101008083540402835291602001916116c0565b820191906000526020600020905b8154815290600101906020018083116116a357829003601f168201915b505050505081565b60118054600181600116156101000203166002900480601f01602080910402602001604051908101604052809291908181526020018280546001816001161561010002031660029004801561175e5780601f106117335761010080835404028352916020019161175e565b820191906000526020600020905b81548152906001019060200180831161174157829003601f168201915b505050505081565b8173ffffffffffffffffffffffffffffffffffffffff16600073ffffffffffffffffffffffffffffffffffffffff161415611809576040517f08c379a00000000000000000000000000000000000000000000000000000000081526004018080602001828103825260188152602001807f696e76616c696420616464726573732070726f7669646564000000000000000081525060200191505060405180910390fd5b611814338383611456565b7fd44fac1f5dbf8e8674ffb02fd7846c7b6771f2d2a311ae9d2ee52958e69ea5fe338383604051808473ffffffffffffffffffffffffffffffffffffffff1673ffffffffffffffffffffffffffffffffffffffff1681526020018373ffffffffffffffffffffffffffffffffffffffff1673ffffffffffffffffffffffffffffffffffffffff168152602001828152602001935050505060405180910390a15050565b60606118c282612778565b80548060200260200160405190810160405280929190818152602001828054801561190c57602002820191906000526020600020905b8154815260200190600101908083116118f8575b50505050509050919050565b6000601760009054906101000a900473ffffffffffffffffffffffffffffffffffffffff1673ffffffffffffffffffffffffffffffffffffffff163373ffffffffffffffffffffffffffffffffffffffff16146119c0576040517f08c379a00000000000000000000000000000000000000000000000000000000081526004018080602001828103825260328152602001806138286032913960400191505060405180910390fd5b8273ffffffffffffffffffffffffffffffffffffffff166119e083611a19565b73ffffffffffffffffffffffffffffffffffffffff161415611a0e57611a05826127c0565b60019050611a13565b600090505b92915050565b6000806001600084815260200190815260200160002060009054906101000a900473ffffffffffffffffffffffffffffffffffffffff169050600073ffffffffffffffffffffffffffffffffffffffff168173ffffffffffffffffffffffffffffffffffffffff161415611ad8576040517f08c379a00000000000000000000000000000000000000000000000000000000081526004018080602001828103825260298152602001806138bc6029913960400191505060405180910390fd5b80915050919050565b60008073ffffffffffffffffffffffffffffffffffffffff168273ffffffffffffffffffffffffffffffffffffffff161415611b68576040517f08c379a000000000000000000000000000000000000000000000000000000000815260040180806020018281038252602a815260200180613892602a913960400191505060405180910390fd5b611baf600360008473ffffffffffffffffffffffffffffffffffffffff1673ffffffffffffffffffffffffffffffffffffffff1681526020019081526020016000206127d5565b9050919050565b8060149080519060200190611bcc92919061360a565b5050565b60138054600181600116156101000203166002900480601f016020809104026020016040519081016040528092919081815260200182805460018160011615610100020316600290048015611c665780601f10611c3b57610100808354040283529160200191611c66565b820191906000526020600020905b815481529060010190602001808311611c4957829003601f168201915b505050505081565b601760009054906101000a900473ffffffffffffffffffffffffffffffffffffffff1681565b6060600a8054600181600116156101000203166002900480601f016020809104026020016040519081016040528092919081815260200182805460018160011615610100020316600290048015611d2c5780601f10611d0157610100808354040283529160200191611d2c565b820191906000526020600020905b815481529060010190602001808311611d0f57829003601f168201915b5050505050905090565b3373ffffffffffffffffffffffffffffffffffffffff168273ffffffffffffffffffffffffffffffffffffffff161415611dd8576040517f08c379a00000000000000000000000000000000000000000000000000000000081526004018080602001828103825260198152602001807f4552433732313a20617070726f766520746f2063616c6c65720000000000000081525060200191505060405180910390fd5b80600460003373ffffffffffffffffffffffffffffffffffffffff1673ffffffffffffffffffffffffffffffffffffffff16815260200190815260200160002060008473ffffffffffffffffffffffffffffffffffffffff1673ffffffffffffffffffffffffffffffffffffffff16815260200190815260200160002060006101000a81548160ff0219169083151502179055508173ffffffffffffffffffffffffffffffffffffffff163373ffffffffffffffffffffffffffffffffffffffff167f17307eab39ab6107e8899845ad3d59bd9653f200f220920489ca2b5937696c3183604051808215151515815260200191505060405180910390a35050565b611ee4848484611456565b611ef0848484846127e3565b611f45576040517f08c379a00000000000000000000000000000000000000000000000000000000081526004018080602001828103825260328152602001806137a66032913960400191505060405180910390fd5b50505050565b601260009054906101000a900460ff1660ff16811115611fb6576040517f08c379a000000000000000000000000000000000000000000000000000000000815260040180806020018281038252602b8152602001806139b8602b913960400191505060405180910390fd5b806010541015612011576040517f08c379a00000000000000000000000000000000000000000000000000000000081526004018080602001828103825260278152602001806137546027913960400191505060405180910390fd5b612026816016546129cc90919063ffffffff16565b34101561209b576040517f08c379a00000000000000000000000000000000000000000000000000000000081526004018080602001828103825260158152602001807f6e6f7420656e6f756768206d6f6e65792073656e74000000000000000000000081525060200191505060405180910390fd5b60008090505b818160ff1610156120ea57600e60008154809291906001019190505550601060008154809291906001900391905055506120dd33600e54612a52565b80806001019150506120a1565b503373ffffffffffffffffffffffffffffffffffffffff167f4cf695110eb016237150bbbf930c9f2377261d25c912abc9aaf6ae0834ddd3cb338342604051808473ffffffffffffffffffffffffffffffffffffffff1673ffffffffffffffffffffffffffffffffffffffff168152602001838152602001828152602001935050505060405180910390a250565b600f5481565b6060612189826125ee565b6121de576040517f08c379a000000000000000000000000000000000000000000000000000000000815260040180806020018281038252602f815260200180613989602f913960400191505060405180910390fd5b600b60008381526020019081526020016000208054600181600116156101000203166002900480601f0160208091040260200160405190810160405280929190818152602001828054600181600116156101000203166002900480156122855780601f1061225a57610100808354040283529160200191612285565b820191906000526020600020905b81548152906001019060200180831161226857829003601f168201915b50505050509050919050565b3373ffffffffffffffffffffffffffffffffffffffff16600073ffffffffffffffffffffffffffffffffffffffff161415612334576040517f08c379a00000000000000000000000000000000000000000000000000000000081526004018080602001828103825260188152602001807f696e76616c696420616464726573732070726f7669646564000000000000000081525060200191505060405180910390fd5b601560009054906101000a900460ff16612399576040517f08c379a000000000000000000000000000000000000000000000000000000000815260040180806020018281038252602e81526020018061395b602e913960400191505060405180910390fd5b6123a2816127c0565b3373ffffffffffffffffffffffffffffffffffffffff166108fc6016549081150290604051600060405180830381858888f193505050501580156123ea573d6000803e3d6000fd5b507f34ea30b622454ede1d09bad7594804f299c83c669a09b435992ff93cf9ad9804303383601654604051808573ffffffffffffffffffffffffffffffffffffffff1673ffffffffffffffffffffffffffffffffffffffff1681526020018473ffffffffffffffffffffffffffffffffffffffff1673ffffffffffffffffffffffffffffffffffffffff16815260200183815260200182815260200194505050505060405180910390a150565b6000600460008473ffffffffffffffffffffffffffffffffffffffff1673ffffffffffffffffffffffffffffffffffffffff16815260200190815260200160002060008373ffffffffffffffffffffffffffffffffffffffff1673ffffffffffffffffffffffffffffffffffffffff16815260200190815260200160002060009054906101000a900460ff16905092915050565b601760009054906101000a900473ffffffffffffffffffffffffffffffffffffffff1673ffffffffffffffffffffffffffffffffffffffff163373ffffffffffffffffffffffffffffffffffffffff16146125d1576040517f08c379a00000000000000000000000000000000000000000000000000000000081526004018080602001828103825260328152602001806138286032913960400191505060405180910390fd5b6001601560006101000a81548160ff021916908315150217905550565b6000806001600084815260200190815260200160002060009054906101000a900473ffffffffffffffffffffffffffffffffffffffff169050600073ffffffffffffffffffffffffffffffffffffffff168173ffffffffffffffffffffffffffffffffffffffff161415915050919050565b600061266b826125ee565b6126c0576040517f08c379a000000000000000000000000000000000000000000000000000000000815260040180806020018281038252602c8152602001806137fc602c913960400191505060405180910390fd5b60006126cb83611a19565b90508073ffffffffffffffffffffffffffffffffffffffff168473ffffffffffffffffffffffffffffffffffffffff16148061273a57508373ffffffffffffffffffffffffffffffffffffffff1661272284611080565b73ffffffffffffffffffffffffffffffffffffffff16145b8061274b575061274a8185612497565b5b91505092915050565b61275f838383612a73565b6127698382612cce565b6127738282612e6c565b505050565b6000600560008373ffffffffffffffffffffffffffffffffffffffff1673ffffffffffffffffffffffffffffffffffffffff1681526020019081526020016000209050919050565b6127d26127cc82611a19565b82612f33565b50565b600081600001549050919050565b60006128048473ffffffffffffffffffffffffffffffffffffffff16612f90565b61281157600190506129c4565b60008473ffffffffffffffffffffffffffffffffffffffff1663150b7a02338887876040518563ffffffff1660e01b8152600401808573ffffffffffffffffffffffffffffffffffffffff1673ffffffffffffffffffffffffffffffffffffffff1681526020018473ffffffffffffffffffffffffffffffffffffffff1673ffffffffffffffffffffffffffffffffffffffff16815260200183815260200180602001828103825283818151815260200191508051906020019080838360005b838110156128ec5780820151818401526020810190506128d1565b50505050905090810190601f1680156129195780820380516001836020036101000a031916815260200191505b5095505050505050602060405180830381600087803b15801561293b57600080fd5b505af115801561294f573d6000803e3d6000fd5b505050506040513d602081101561296557600080fd5b8101908080519060200190929190505050905063150b7a0260e01b7bffffffffffffffffffffffffffffffffffffffffffffffffffffffff1916817bffffffffffffffffffffffffffffffffffffffffffffffffffffffff1916149150505b949350505050565b6000808314156129df5760009050612a4c565b60008284029050828482816129f057fe5b0414612a47576040517f08c379a00000000000000000000000000000000000000000000000000000000081526004018080602001828103825260218152602001806138e56021913960400191505060405180910390fd5b809150505b92915050565b612a5c8282612fa3565b612a668282612e6c565b612a6f816131bb565b5050565b8273ffffffffffffffffffffffffffffffffffffffff16612a9382611a19565b73ffffffffffffffffffffffffffffffffffffffff1614612aff576040517f08c379a00000000000000000000000000000000000000000000000000000000081526004018080602001828103825260298152602001806139326029913960400191505060405180910390fd5b600073ffffffffffffffffffffffffffffffffffffffff168273ffffffffffffffffffffffffffffffffffffffff161415612b85576040517f08c379a00000000000000000000000000000000000000000000000000000000081526004018080602001828103825260248152602001806137d86024913960400191505060405180910390fd5b612b8e81613207565b612bd5600360008573ffffffffffffffffffffffffffffffffffffffff1673ffffffffffffffffffffffffffffffffffffffff1681526020019081526020016000206132c5565b612c1c600360008473ffffffffffffffffffffffffffffffffffffffff1673ffffffffffffffffffffffffffffffffffffffff1681526020019081526020016000206132e8565b816001600083815260200190815260200160002060006101000a81548173ffffffffffffffffffffffffffffffffffffffff021916908373ffffffffffffffffffffffffffffffffffffffff160217905550808273ffffffffffffffffffffffffffffffffffffffff168473ffffffffffffffffffffffffffffffffffffffff167fddf252ad1be2c89b69c2b068fc378daa952ba7f163c4a11628f55a4df523b3ef60405160405180910390a4505050565b6000612d266001600560008673ffffffffffffffffffffffffffffffffffffffff1673ffffffffffffffffffffffffffffffffffffffff168152602001908152602001600020805490506132fe90919063ffffffff16565b9050600060066000848152602001908152602001600020549050818114612e13576000600560008673ffffffffffffffffffffffffffffffffffffffff1673ffffffffffffffffffffffffffffffffffffffff1681526020019081526020016000208381548110612d9357fe5b9060005260206000200154905080600560008773ffffffffffffffffffffffffffffffffffffffff1673ffffffffffffffffffffffffffffffffffffffff1681526020019081526020016000208381548110612deb57fe5b9060005260206000200181905550816006600083815260200190815260200160002081905550505b600560008573ffffffffffffffffffffffffffffffffffffffff1673ffffffffffffffffffffffffffffffffffffffff168152602001908152602001600020805480919060019003612e65919061368a565b5050505050565b600560008373ffffffffffffffffffffffffffffffffffffffff1673ffffffffffffffffffffffffffffffffffffffff168152602001908152602001600020805490506006600083815260200190815260200160002081905550600560008373ffffffffffffffffffffffffffffffffffffffff1673ffffffffffffffffffffffffffffffffffffffff1681526020019081526020016000208190806001815401808255809150509060018203906000526020600020016000909192909190915055505050565b612f3d8282613387565b6000600b600083815260200190815260200160002080546001816001161561010002031660029004905014612f8c57600b60008281526020019081526020016000206000612f8b91906136b6565b5b5050565b600080823b905060008111915050919050565b600073ffffffffffffffffffffffffffffffffffffffff168273ffffffffffffffffffffffffffffffffffffffff161415613046576040517f08c379a00000000000000000000000000000000000000000000000000000000081526004018080602001828103825260208152602001807f4552433732313a206d696e7420746f20746865207a65726f206164647265737381525060200191505060405180910390fd5b61304f816125ee565b156130c2576040517f08c379a000000000000000000000000000000000000000000000000000000000815260040180806020018281038252601c8152602001807f4552433732313a20746f6b656e20616c7265616479206d696e7465640000000081525060200191505060405180910390fd5b816001600083815260200190815260200160002060006101000a81548173ffffffffffffffffffffffffffffffffffffffff021916908373ffffffffffffffffffffffffffffffffffffffff16021790555061315b600360008473ffffffffffffffffffffffffffffffffffffffff1673ffffffffffffffffffffffffffffffffffffffff1681526020019081526020016000206132e8565b808273ffffffffffffffffffffffffffffffffffffffff16600073ffffffffffffffffffffffffffffffffffffffff167fddf252ad1be2c89b69c2b068fc378daa952ba7f163c4a11628f55a4df523b3ef60405160405180910390a45050565b6007805490506008600083815260200190815260200160002081905550600781908060018154018082558091505090600182039060005260206000200160009091929091909150555050565b600073ffffffffffffffffffffffffffffffffffffffff166002600083815260200190815260200160002060009054906101000a900473ffffffffffffffffffffffffffffffffffffffff1673ffffffffffffffffffffffffffffffffffffffff16146132c25760006002600083815260200190815260200160002060006101000a81548173ffffffffffffffffffffffffffffffffffffffff021916908373ffffffffffffffffffffffffffffffffffffffff1602179055505b50565b6132dd600182600001546132fe90919063ffffffff16565b816000018190555050565b6001816000016000828254019250508190555050565b600082821115613376576040517f08c379a000000000000000000000000000000000000000000000000000000000815260040180806020018281038252601e8152602001807f536166654d6174683a207375627472616374696f6e206f766572666c6f77000081525060200191505060405180910390fd5b600082840390508091505092915050565b61339182826133c1565b61339b8282612cce565b600060066000838152602001908152602001600020819055506133bd81613550565b5050565b8173ffffffffffffffffffffffffffffffffffffffff166133e182611a19565b73ffffffffffffffffffffffffffffffffffffffff161461344d576040517f08c379a0000000000000000000000000000000000000000000000000000000008152600401808060200182810382526025815260200180613a616025913960400191505060405180910390fd5b61345681613207565b61349d600360008473ffffffffffffffffffffffffffffffffffffffff1673ffffffffffffffffffffffffffffffffffffffff1681526020019081526020016000206132c5565b60006001600083815260200190815260200160002060006101000a81548173ffffffffffffffffffffffffffffffffffffffff021916908373ffffffffffffffffffffffffffffffffffffffff16021790555080600073ffffffffffffffffffffffffffffffffffffffff168373ffffffffffffffffffffffffffffffffffffffff167fddf252ad1be2c89b69c2b068fc378daa952ba7f163c4a11628f55a4df523b3ef60405160405180910390a45050565b600061356b60016007805490506132fe90919063ffffffff16565b905060006008600084815260200190815260200160002054905060006007838154811061359457fe5b9060005260206000200154905080600783815481106135af57fe5b906000526020600020018190555081600860008381526020019081526020016000208190555060078054809190600190036135ea919061368a565b506000600860008681526020019081526020016000208190555050505050565b828054600181600116156101000203166002900490600052602060002090601f016020900481019282601f1061364b57805160ff1916838001178555613679565b82800160010185558215613679579182015b8281111561367857825182559160200191906001019061365d565b5b50905061368691906136fe565b5090565b8154818355818111156136b1578183600052602060002091820191016136b091906136fe565b5b505050565b50805460018160011615610100020316600290046000825580601f106136dc57506136fb565b601f0160209004906000526020600020908101906136fa91906136fe565b5b50565b61372091905b8082111561371c576000816000905550600101613704565b5090565b9056fe63616e206e6f7420636f6c6c656374207061796d656e74206265666f726520746865206576656e74206973206f7665726e6f7420656e6f756768207469636b6574207175616e7469747920617661696c61626c65212121455243373231456e756d657261626c653a206f776e657220696e646578206f7574206f6620626f756e64734552433732313a207472616e7366657220746f206e6f6e20455243373231526563656976657220696d706c656d656e7465724552433732313a207472616e7366657220746f20746865207a65726f20616464726573734552433732313a206f70657261746f7220717565727920666f72206e6f6e6578697374656e7420746f6b656e6f6e6c79206576656e74206f776e657220697320616c6c6f77656420746f20706572666f726d207468697320616374696f6e4552433732313a20617070726f76652063616c6c6572206973206e6f74206f776e6572206e6f7220617070726f76656420666f7220616c6c4552433732313a2062616c616e636520717565727920666f7220746865207a65726f20616464726573734552433732313a206f776e657220717565727920666f72206e6f6e6578697374656e7420746f6b656e536166654d6174683a206d756c7469706c69636174696f6e206f766572666c6f774552433732313a20617070726f76656420717565727920666f72206e6f6e6578697374656e7420746f6b656e4552433732313a207472616e73666572206f6620746f6b656e2074686174206973206e6f74206f776e726566756e64206973206f6e6c7920617661696c61626c6520666f7220636163616e63656c6564206576656e74734552433732314d657461646174613a2055524920717565727920666f72206e6f6e6578697374656e7420746f6b656e63616e206e6f74207075726368617365206d6f7265207468616e2035207469636b6574206174206f6e63654552433732313a20617070726f76616c20746f2063757272656e74206f776e65724552433732313a207472616e736665722063616c6c6572206973206e6f74206f776e6572206e6f7220617070726f766564455243373231456e756d657261626c653a20676c6f62616c20696e646578206f7574206f6620626f756e64734552433732313a206275726e206f6620746f6b656e2074686174206973206e6f74206f776ea165627a7a72305820e10eb291b989a3c8dced5a780ca0e8e89fdccc2b9b2fb6af7ea08a9b025ede580029a165627a7a72305820f9d02362894b27424ff67f0d42aa01750ab96d8440444cf50d85505e6c3f90cc0029",
  "source": "pragma solidity ^0.5.0;\n\nimport \"./Event.sol\";\n\n/**\n@title Event factory */\ncontract EventFactory {\n\n\n        /**\n        @dev created and deployed new event and saves it in the event list array\n        @param _name title of the event to be created \n        @param start start date of event in unix timestamp\n        @param end end date of event in unix timestamp \n        @param supply total supply of event ticket available for the event\n        @param ticketPrice price of single ticket price in wei\n        @param description description of the event \n        @param location location of the event\n        @return emits eveneCreated log\n        */\n    Event[] public deployedEvents;\n    event eventCreated(Event _address, string _name, uint _ticketPrice, string location, uint startDate, uint endDate, string indexed _filterName, string indexed _filterLocation);\n    \n    function createEvent(string memory  _name, uint _start, uint _end,  uint supply, uint _ticketPrice, string memory _description, string memory _location) public  {\n        address payable sender = msg.sender;\n        Event newEvent = new Event(sender, _name, _start, _end,_description, _location, supply, _ticketPrice );\n        deployedEvents.push(newEvent);\n        emit eventCreated(newEvent, _name, _ticketPrice, _location, _start, _end, _name, _location);\n\n    }\n\n    /**\n    @dev returns list of event addresses\n    @return deployedEvents array of event address */\n   function getDeployedEvents() public view returns(Event[] memory) {\n        return deployedEvents;\n    }\n    \n}\n",
  "sourcePath": "/var/www/html/bionic_event_dapp/contracts/EventFactory.sol",
  "compiler": {
    "name": "solc",
    "version": "0.5.8+commit.23d335f2.Emscripten.clang"
  },
  "schemaVersion": "3.0.16",
  "updatedAt": "2019-11-25T06:08:29.102Z",
  "devdoc": {
    "methods": {
      "getDeployedEvents()": {
        "details": "returns list of event addresses",
        "return": "deployedEvents array of event address "
      }
    },
    "title": "Event factory "
  },
  "userdoc": {
    "methods": {}
  }
}